:020000040800F2
:10000000000002207D1F00085D1D00085F1D000824
:10001000611D0008631D0008651D00080000000048
:10002000000000000000000000000000671D000844
:10003000691D0008000000006B1D00086D1D000810
:10004000CD1F0008CD1F0008CD1F0008CD1F0008E0
:10005000CD1F0008CD1F0008CD1F0008CD1F0008D0
:10006000CD1F0008CD1F0008CD1F0008CD1F0008C0
:10007000CD1F0008CD1F0008CD1F0008CD1F0008B0
:10008000CD1F0008CD1F0008CD1F0008CD1F0008A0
:10009000CD1F0008CD1F0008CD1F0008CD1F000890
:1000A000CD1F0008711D0008CD1F0008CD1F0008DE
:1000B000CD1F0008CD1F0008CD1F0008CD1F000870
:1000C000CD1F0008CD1F0008CD1F0008CD1F000860
:1000D000CD1F0008CD1F0008CD1F0008CD1F000850
:1000E000CD1F0008CD1F0008CD1F0008CD1F000840
:1000F000CD1F0008CD1F0008CD1F0008CD1F000830
:10010000CD1F0008CD1F0008CD1F0008CD1F00081F
:10011000CD1F0008CD1F0008CD1F0008CD1F00080F
:100120007D1D0008CD1F0008CD1F0008CD1F000851
:10013000CD1F00080000000000000000CD1F0008D7
:10014000CD1F0008CD1F0008CD1F0008CD1F0008DF
:10015000CD1F0008CD1F0008CD1F0008CD1F0008CF
:10016000CD1F0008CD1F0008CD1F0008CD1F0008BF
:10017000CD1F0008CD1F0008CD1F000800000000A3
:1001800000000000CD1F000800000000000000007B
:10019000CD1F00080000000000000000CD1F000877
:1001A000000000000000000000000000CD1F00085B
:1001B000CD1F0008CD1F0008CD1F0008CD1F00086F
:0401C000CD1F000847
:1001C40010B5054C237833B9044B13B10448AFF38D
:1001D40000800123237010BD0C00002000000000EB
:1001E4002820000808B5034B1BB103490348AFF3AB
:1001F400008008BD00000000100000202820000836
:1002040053B94AB9002908BF00281CBF4FF0FF3179
:100214004FF0FF3000F07AB9ADF1080C6DE904CE6F
:1002240000F006F8DDF804E0DDE9022304B07047CD
:100234002DE9F0478C460D460446089E002B51D10B
:100244008A4217466DD9B2FA82FEBEF1000F0BD076
:10025400CEF1200C01FA0EF520FA0CFC02FA0EF78E
:100264004CEA050C00FA0EF44FEA174A250CBCFBC5
:10027400FAF81FFA87F90AFB18CC45EA0C4508FB83
:1002840009F3AB420AD9ED1908F1FF3280F023815A
:10029400AB4240F22081A8F102083D44ED1AA4B219
:1002A400B5FBFAF00AFB105544EA054400FB09F9D2
:1002B400A14509D9E41900F1FF3380F00A81A14571
:1002C40040F2078102383C44A4EB090440EA0840A8
:1002D4000021002E61D024FA0EF4002334607360F0
:1002E400BDE8F0878B4207D9002E54D0002186E860
:1002F40021000846BDE8F087B3FA83F1002940F0F5
:100304008E80AB4202D3824200F2FA80841A65EBFB
:1003140003050120AC46002E3FD086E81010BDE84E
:10032400F08712B90127B7FBF2F7B7FA87FEBEF1DF
:10033400000F34D1EB1B3A0C1FFA87FC0121B3FBED
:10034400F2F8250C02FB183345EA03450CFB08F3CD
:10035400AB4207D9ED1908F1FF3002D2AB4200F2EB
:10036400D1808046ED1AA3B2B5FBF2F002FB105522
:1003740043EA05440CFB00FCA44507D9E41900F149
:10038400FF3302D2A44500F2B8801846A4EB0C0453
:1003940040EA08409DE731463046BDE8F087CEF19B
:1003A400200405FA0EF307FA0EF720FA04F83A0CC3
:1003B40025FA04F448EA0308B4FBF2F14FEA1845BD
:1003C40002FB11441FFA87FC45EA044501FB0CF3C8
:1003D400AB4200FA0EF409D9ED1901F1FF3080F0B7
:1003E4008A80AB4240F2878002393D44EB1A1FFAFF
:1003F40088F5B3FBF2F002FB103345EA034500FB3A
:100404000CF3AB4207D9ED1900F1FF386FD2AB42C0
:100414006DD902383D44EB1A40EA01418FE7C1F13E
:10042400200722FA07F88B4005FA01F448EA03038F
:1004340020FA07FE4FEA134CFD404EEA040EB5FBCA
:10044400FCF94FEA1E440CFB19551FFA83F844EAE1
:10045400054509FB08F4AC4202FA01F200FA01FA7C
:1004640008D9ED1809F1FF3043D2AC4241D9A9F1C2
:1004740002091D442D1B1FFA8EFEB5FBFCF00CFB7C
:1004840010554EEA054400FB08F8A04507D9E418C6
:1004940000F1FF3529D2A04527D902381C4440EA8F
:1004A4000940A4EB0804A0FB02894C45C6464D460E
:1004B40015D312D056B1BAEB0E0364EB050404FA5B
:1004C40007F7CB401F43CC40376074600021BDE880
:1004D400F0871846F8E69046E0E6C245EAD2B8EB63
:1004E400020E69EB03050138E4E72846D7E74046E6
:1004F40091E78146BEE7014678E702383C4445E788
:10050400084608E7A8F102083D442BE7704700BFFE
:1005140038B50E4A0E4B054618784FF47A73B3FB80
:10052400F0F31068B0FBF3F000F0DEF9044658B9BC
:100534000F2D09D8024629464FF0FF3000F092F9FA
:10054400044B20461D6038BD012038BD0800002042
:10055400000000200400002008B50B4B1A6842F488
:1005640000721A601A6842F480621A601A6842F4CF
:1005740080721A60032000F063F90020FFF7C8FFBF
:1005840001F0CAFB002008BD003C0240034A044BB2
:1005940011681B780B441360704700BF34000020BF
:1005A40000000020014B1868704700BF3400002091
:1005B40038B50446002800F09B80056C25B901F08D
:1005C4005BFA656484F83C50236CDB0600F18E8092
:1005D400236C23F4885323F0020343F002032364BF
:1005E400444B5A6822F440325A605A6861680A439C
:1005F4005A60236821695A6822F480725A605A68E2
:1006040042EA01225A605A68A16822F040725A6094
:100614005A680A435A609A68E16822F400629A6050
:100624009A680A439A603449A26A8A4252D0996805
:1006340021F07061996099680A439A609A68E16A46
:1006440022F040529A609A680A439A609A68217E1E
:1006540022F002029A609A6842EA41029A6094F88F
:100664002020002A3ED05A68616A42F400625A602F
:100674005A6822F460425A605A68013942EA4132A7
:100684005A60DA6AE16922F47002DA62DA6A0139DC
:1006940042EA0152DA629A6894F8301022F4007245
:1006A4009A609A6842EA41229A609A68616922F4DF
:1006B40080629A609A68002042EA81229A606064AB
:1006C400236C23F0030343F001032364002384F821
:1006D4003C3038BD9A6822F070629A609A6822F0C1
:1006E4004052B2E75A6822F40062C9E70120EDE7FC
:1006F400012038BD002301400100000FF7B500239D
:10070400019390F83C30012B6ED00D6804688A6820
:100714000123092D80F83C30AEB22AD906EB4603FA
:10072400E7681E3B4FF0070E0EFA03FE27EA0E079A
:10073400E760E76802FA03F33B43E3604A68062A8A
:100744004FEA820325D81344676B591F1F238B403C
:1007540027EA03036363626B06FA01F111436163E1
:10076400324B9C4234D0002380F83C30184603B00E
:10077400F0BD276905EB45034FF0070E0EFA03FEA3
:1007840027EA0E072761276902FA03F33B43236133
:10079400D4E70C2A0ED81344216BA3F123021F23A0
:1007A400934021EA03032363236B06FA02F21A43FC
:1007B4002263D5E71344E16A413B1F229A4021EAB0
:1007C4000202E262E26A06FA03F11143E162C7E758
:1007D400122D0BD1164B5A6822F400025A605A6843
:1007E40042F480025A60BEE70220C0E7114B9D42EA
:1007F40001D0112DB7D10E4B5A6822F480025A60F1
:100804005A6842F400025A600A4B9D42ABD10A4B2B
:100814000A4A1B68B3FBF2F20A2353430193019B78
:10082400002BA0D0019B013BF8E700BF0020014052
:1008340000230140120000100800002040420F0075
:10084400074AD36823F4E0631B041B0C43F0BF6323
:10085400000243F4003300F4E0600343D3607047C4
:1008640000ED00E0174B30B5DC68C4F30224C4F19A
:100874000703251D042B28BF0423062D4FF0010573
:1008840005FA03F303F1FF338CBF033C0024194042
:10089400A14005FA04F4013C2240002842EA010286
:1008A4004FEA0212ADBF00F1604000F00F00064BAA
:1008B40000F56140B5BFD2B2D2B21A5480F8002319
:1008C40030BD00BF00ED00E014ED00E0002808DBBF
:1008D4004209012300F01F0003FA00F0014B43F822
:1008E4002200704700E100E00138B0F1807F0AD2B5
:1008F400064B074A5860F02182F823100020072293
:1009040098601A6070470120704700BF10E000E053
:1009140000ED00E00368DAB223F47F7323F00303ED
:100924001821103AB2FBF1F20449032A88BF0433B8
:10093400895C8365C165806D704700BF40200008F5
:1009440070B50446FFF72EFE0546002C71D0002337
:1009540084F834302268022384F83530136823F095
:100964000103136021680B68D8073CD40B68324D2F
:100974006268A0691D40A3681343E26813432269B7
:10098400134362691343E26903431343226A134323
:10099400626A042A43EA050301BF266BE56A35430C
:1009A4002B430B604B69042A23F0070343EA020339
:1009B4000BD1A26AE56A13433DB1F8B9012A2DD0DF
:1009C40001D3022A01D1EA012BD44B612046FFF75F
:1009D400A1FFE26D3F239340836000200123606503
:1009E40084F8353070BDFFF7DDFD401B0528B9D90B
:1009F40020236365032084F8350070BDB0F5005FE3
:100A040013D1032AE1D801A050F822F0270A0008E4
:100A1400CB090008270A0008210A0008B5F1C07FA5
:100A2400D3D1402363650120E5E7022AF9D9032ADB
:100A3400C8E7012070BD00BF3F8010F0F7B5002368
:100A440001935A4B856D1F68C36D2E6808229A4026
:100A5400164204460CD001680868400708D50868A7
:100A640020F004000860AA60626D42F00102626531
:100A740001229A40164208D021684969090641BFFB
:100A8400AA60626D42F00202626504229A40164234
:100A940008D021680968880741BFAA60626D42F0E6
:100AA4000402626510229A40164210D02368196825
:100AB40009070CD5AA601A68500335D51B681903B9
:100AC40001D4236C00E0A36C0BB120469847E16D80
:100AD40020228A40164238D023681868C60634D5C6
:100AE400AA6094F83520052A1A6825D122F0160246
:100AF4001A605A6922F080025A61226C0AB9A26C07
:100B04001AB11A6822F008021A603F238B40AB60C6
:100B1400002384F83430012384F83530236D0BB17D
:100B24002046984703B0F0BD1A68D2055EBF1A6824
:100B340022F008021A60C4E7500328D51B68190381
:100B440032D4636C0BB120469847636D002BE9D017
:100B5400636DDA0719D50523226884F835301368E4
:100B640023F0010313604FF41653B7FBF3F7019B13
:100B740001339F42019302D31368DB07F7D40023A8
:100B840084F83430012384F83530E36CC7E71A68FD
:100B940012F4807208D1196821F010011960012340
:100BA40084F8342084F83530E36BCBE70800002068
:100BB4002DE9F04F85B00B68DFF8A081654ADFF8B6
:100BC400A091019300234FF0010E019C0EFA03FE45
:100BD4000EEA0406B64540F0AA804C6824F01007DB
:100BE400022F16D14FEAD30A00EB8A0A03F0070B4F
:100BF400DAF820504FEA8B0B4FF00F0C0CFA0BFC79
:100C040025EA0C0C0D6905FA0BF545EA0C05CAF842
:100C140020504FEA430A0325D0F800B005FA0AF53C
:100C2400ED4304F0030C0BEA050B0CFA0AFC013F3C
:100C34004CEA0B0C012FC0F800C011D8876807EAF2
:100C4400050BCF6807FA0AFC4CEA0B078760476874
:100C540027EA0E0EC4F300179F4047EA0E074760C9
:100C6400C7683D408F6807FA0AF73D43C560E50051
:100C74005DD54FF0000BCDF80CB0D8F84470364D6C
:100C840047F48047C8F84470D8F8447007F48047A4
:100C94000397039F23F0030707F1804707F59C3769
:100CA40003F0030CD7F808A04FEA8C0C4FF00F0E9A
:100CB4000EFA0CFEA8422AEA0E0E3FD005F5806516
:100CC400A8423DD005F58065A8423BD005F5806576
:100CD400A84239D005F58065A84237D0484537D0B9
:100CE40005F50065A84214BF0725062505FA0CF58D
:100CF40045EA0E05BD601568F74314F4803F0CBF48
:100D04003D4035431560556814F4003F0CBF3D4029
:100D140035435560956814F4801F0CBF3D4035433E
:100D24009560D568A40254BF3D403543D560013376
:100D3400102B7FF448AF05B0BDE8F08F5D46D5E7D2
:100D44000125D3E70225D1E70325CFE70425CDE725
:100D54000525CBE7003C014000000240003802407A
:100D6400001402400AB1816170470904FBE70000E6
:100D74002DE9F0410D46044610B90120BDE8F0818B
:100D8400444B1A6802F00F028A4228D321688F0765
:100D94002DD4C80740D43F4B1A6802F00F02954285
:100DA40066D3226851076CD4130707D53A4A2169E0
:100DB400936823F4604343EAC103936000F092F81C
:100DC400354B364A9B68C3F30313D35CD840344B8A
:100DD40018600020FFF79CFB0020BDE8F081CAB238
:100DE4001A701B6803F00F039942C6D1CEE72A4B51
:100DF40011F0040F1EBF9A6842F4E0529A600E0785
:100E040042BF9A6842F460429A609A68A06822F0ED
:100E1400F00202439A60BCE762681F4B012A1DD1AD
:100E24001B6813F4003FA8D01B4EB36823F00303E0
:100E34001343B360FFF7B6FB41F288380746B36843
:100E4400626803F00C03B3EB820FA4D0FFF7AAFB94
:100E5400C01B4045F3D90320BDE8F081911E012950
:100E64001B6802D813F0007FDDE713F0020FDAE706
:100E7400EAB21A701B6803F00F039D427FF47DAF42
:100E84008FE70549E0688B6823F4E05303438B60E4
:100E94008AE700BF003C02400038024048200008B6
:100EA40008000020044B054A9B68C3F38223D35CEB
:100EB400034A1068D84070470038024058200008A0
:100EC40008000020044B054A9B68C3F34233D35CFB
:100ED400034A1068D8407047003802405820000880
:100EE40008000020204908B58B6803F00C03082B88
:100EF40007D00C2B20D01D4A1D48042B18BF1046C8
:100F040008BD4A684B68496813F4800314BF184845
:100F14001648C1F3881118BF002302F03F02A1FB59
:100F24000001FFF76DF9104B5B68C3F30143013314
:100F34005B00B0FBF3F008BD4A684B68496813F4E2
:100F4400800314BF0A480948C1F3881118BF00235D
:100F540002F03F02A1FB0001FFF752F9024B5B686C
:100F6400C3F30273E5E700BF003802400024F40035
:100F740000127A0003682DE9F341DF07044610D418
:100F840023689E0767D423681A0700F1B280236898
:100F94005B0700F1D080A269002A40F0398100206B
:100FA4001EE0974B9A6802F00C02042A10D09A684B
:100FB40002F00C02082A02D15B685D0208D4904B4F
:100FC4009A6802F00C020C2A0DD15A6850020AD514
:100FD4008B4B1B689903D3D56368002BD0D10120B8
:100FE40002B0BDE8F0816268B2F5803F11D11A68A1
:100FF40042F480321A60FFF7D5FA814D06462B6819
:101004009A03BDD4FFF7CEFA801B6428F7D90320D6
:10101400E6E77B4DB2F5A02F2B6807D143F480237C
:101024002B602B6843F480332B60E4E723F4803394
:101034002B602B6823F480232B60002ADBD1FFF77D
:10104400B1FA06462B689B039AD5FFF7ABFA801BCF
:101054006428F7D9DBE76A4B9A6812F00C0F10D0BA
:101064009A6802F00C02082A02D15B685F0208D574
:10107400634A936803F00C030C2B11D153685E028E
:101084000ED45F4B1A68950702D5E268012AA6D1EF
:101094001A68216922F0F80242EAC1021A6072E772
:1010A400E268584BB2B101221A60FFF77BFA544D43
:1010B40006462B68980707D52B68226923F0F803A6
:1010C40043EAC2032B605EE7FFF76CFA801B022839
:1010D400EFD99CE71A60FFF765FA494D06462B687D
:1010E40099077FF550AFFFF75DFA801B0228F6D908
:1010F4008DE76269444B7AB101221A60FFF752FA14
:101104003F4D06466B6F9F073FF541AFFFF74AFA25
:10111400801B0228F6D97AE71A60FFF743FA384DA4
:1011240006466B6F98077FF532AFFFF73BFA801BDB
:101134000228F6D96BE7324B1A6C12F0805228D190
:1011440001921A6C42F080521A641B6C03F08053B3
:101154000193019B01262D4D2B68D9051BD5A3684E
:10116400274D012B27D12B6F43F001032B67FFF78A
:1011740019FA234D074641F288382B6F9B0739D55E
:10118400002E3FF408AF1E4A136C23F080531364FF
:1011940001E70026DFE72B6843F480732B60FFF739
:1011A40001FA07462B68DA05D9D4FFF7FBF9C01B0F
:1011B4000228F7D92BE7052B04D12B6F43F0040346
:1011C4002B67D0E72A6F22F001022A672A6F22F0E8
:1011D40004022A67002BCAD1FFF7E4F941F28838E8
:1011E40007462B6F9807CBD5FFF7DCF9C01B4045AA
:1011F400F7D90CE7FFF7D6F9C01B4045BDD906E780
:101204000038024000004742800E47420070004010
:10121400234DAB6803F00C03082B3FF4E0AE214EE2
:101224000023022A33602DD1FFF7BCF907462B684F
:10123400990121D4226AE3691343626A43EA82135F
:10124400E26A43EA0263226B43EA0273A26A144C21
:101254005208013A43EA02436B6001233360FFF70B
:10126400A1F9054623689A013FF599AEFFF79AF96B
:10127400401B0228F6D9CAE6FFF794F9C01B0228DE
:10128400D5D9C4E6FFF78EF904462B689B017FF598
:1012940086AEFFF787F9001B0228F6D9B7E600BF30
:1012A40000380240600047427047704770477047FB
:1012B40003681A69910710B504460ED5DA689207D7
:1012C4000BD56FF002021A619B6901229B0702771A
:1012D40077D0FFF7EAFF0023237723681A695007C2
:1012E40010D5DA6851070DD56FF004021A619B69B5
:1012F400022213F4407F2277204668D0FFF7D5FFFF
:101304000023237723681A6912070FD5DA681007B8
:101314000CD56FF008021A61DB6904229907227761
:1013240020465AD0FFF7C1FF0023237723681A69A8
:10133400D20610D5DA68D0060DD56FF010021A6106
:10134400DB69082213F4407F227720464BD0FFF755
:10135400ACFF0023237723681A69D10708D5DA681C
:10136400D20705D56FF001021A61204600F0BEFCD9
:1013740023681A69100608D5DA68110605D56FF0D6
:1013840080021A61204600F072F923681A69520635
:1013940008D5DA68500605D56FF040021A61204678
:1013A400FFF785FF23681A69910622D5DA68920649
:1013B4001FD56FF0200220461A61BDE8104000F0EE
:1013C40055B9FFF771FF2046FFF770FF83E7FFF77A
:1013D4006BFF2046FFF76AFF92E7FFF765FF2046A1
:1013E400FFF764FFA0E7FFF75FFF2046FFF75EFF0C
:1013F400AFE710BD304A0368904212D0B0F1804F7D
:101404000FD0A2F57C4290420BD002F5806290424C
:1014140007D002F58062904203D002F578429042F0
:1014240019D14A6823F070031343234A904229D008
:10143400B0F1804F26D0A2F57C42904222D002F532
:10144400806290421ED002F5806290421AD002F56A
:101454007842904216D0194A904213D002F5806225
:1014640090420FD002F5806290420BD0A2F59832E0
:10147400904207D002F58062904203D002F5806268
:10148400904203D1CA6823F4407313434A6923F09A
:101494008003134303608B68C3620B688362064B4B
:1014A400984203D003F58063984201D10B6903632A
:1014B40001234361704700BF000001400040014028
:1014C40010B50446A0B190F83D3003F0FF021BB9FB
:1014D40080F83C2000F0CCFC022384F83D302068E6
:1014E400211DFFF787FF012384F83D30002010BD44
:1014F400012010BD10B584680A4324F47F4442EAF5
:1015040003232343836010BD90F83C30012B70B556
:1015140004464FF0020019D084F83D0020680123EE
:1015240084F83C30836823F47F4323F0770383609B
:101534000B68402B65D015D8102B0CD007D853B1AD
:101544000123002084F83D3084F83C0070BD202B3A
:1015540001D0302BF4D1826843F0070322F07002EB
:1015640013431AE0602B34D019D8502BE8D14A68C1
:10157400CE68016A056A25F001050562836921F0D8
:101584000A0123F0F00343EA06130A43836102626B
:10159400836823F0700343F057038360D0E7702B14
:1015A4000CD0B3F5005FCBD1CB684A688968FFF7EC
:1015B400A1FF2268936843F4804308E0CB684A683B
:1015C4008968FFF797FF2268936843F07703936075
:1015D400B6E74D68CE68016A21F0100101628269A4
:1015E400036A22F4704223F0A00343EA051342EA9B
:1015F400063282610362836823F0700343F0670359
:10160400CBE74A68CE68016A056A25F001050562E0
:10161400836921F00A0123F0F00343EA06130A4325
:1016240083610262836823F0700343F04703B4E7E5
:1016340090F83C30012B30B54FF0020314D004680D
:1016440080F83D306268A3680D68496822F0700232
:1016540023F080030B432A436260A360012380F8D4
:101664003D30002380F83C30184630BD7047704749
:101674002DE9F0470668C2683369C16923F4405311
:1016840013433361044683680069F2680343606965
:1016940022F41642034322F00C020B431343F3607B
:1016A4007369A26923F440731343B1F5004F736166
:1016B4007A4B7CD19E4203D003F580639E4244D191
:1016C400FFF700FC192505FB00F360684FF064097F
:1016D4004000B3FBF0F3B3FBF9F34FEA0318FFF751
:1016E400F1FB636868435B00B0FBF3F7FFF7EAFBC9
:1016F400636868435B00B0FBF3F3B3FBF9F309FBE6
:101704001373DB003233B3FBF9F35B0003F4F877B4
:10171400FFF7D8FB626868435200B0FBF2FAFFF7A8
:10172400D1FB636868435B00B0FBF3F3B3FBF9F3ED
:1017340009FB13A3DB003233B3FBF9F303F0070314
:1017440043443B44B360BDE8F087FFF7ABFB192586
:1017540005FB00F360684FF064094000B3FBF0F34D
:10176400B3FBF9F34FEA0318FFF79CFB6368684384
:101774005B00B0FBF3F7FFF795FB636868435B001E
:10178400B0FBF3F3B3FBF9F309FB1373DB00323360
:10179400B3FBF9F35B0003F4F877FFF783FB6268AC
:1017A40068435200B0FBF2FAFFF77CFBB9E79E42B4
:1017B40002D03B4B9E4240D1FFF784FB676819255A
:1017C4004FF0640905FB00F3BF00B3FBF7F3B3FB71
:1017D400F9F31F01FFF776FB636868439B00B0FBD6
:1017E400F3F8FFF76FFB636868439B00B0FBF3F308
:1017F400B3FBF9F309FB13831B013233B3FBF9F396
:1018040003F0F008FFF75EFB626868439200B0FBE8
:10181400F2FAFFF757FB636868439B00B0FBF3F3EE
:10182400B3FBF9F309FB13A31B013233B3FBF9F345
:1018340003F00F0343EA080383E7FFF733FB67680A
:1018440019254FF0640905FB00F3BF00B3FBF7F360
:10185400B3FBF9F31F01FFF725FB636868439B00A3
:10186400B0FBF3F8FFF71EFB636868439B00B0FB13
:10187400F3F3B3FBF9F309FB13831B013233B3FB1B
:10188400F9F303F0F008FFF70DFB62686843920078
:10189400B0FBF2FAFFF706FBBDE700BF0010014002
:1018A40000140140F8B504460E4617461D4621684B
:1018B4000B6836EA030301D10020F8BD6B1CF7D096
:1018C40095B92368DA6822F4D072DA605A6922F092
:1018D40001025A61202384F8393084F83A30002315
:1018E40084F838300320F8BDFEF75CFEC01B854247
:1018F400DDD2E6E710B5044640B390F8393003F082
:10190400FF021BB980F8382000F0FEFA2268242375
:1019140084F83930D36823F40053D3602046FFF7AA
:10192400A7FE23681A6922F490421A615A6922F0C8
:101934002A025A61DA6842F40052DA600020202355
:10194400E06384F8393084F83A3010BD012010BDCA
:101954002DE9F0411F4690F83930202B04460D46FE
:1019640090464FD100294AD0002A48D090F8383008
:10197400012B47D0012380F838300023C36321238F
:1019840080F83930FEF70EFEA4F824800646A4F849
:101994002680E38C9BB26BB93B46324640212046FD
:1019A400FFF780FFB0B9202384F8393084F8380079
:1019B400BDE8F081E38C013B9BB2E384A368B3F5FB
:1019C400805F32463B464FF0800120460ED1FFF740
:1019D40069FF10B10320BDE8F0812B882268C3F3AE
:1019E40008035360236943B90235D2E7FFF75AFF6E
:1019F4000028EFD123682A785A600135C9E701200D
:101A0400BDE8F0810220BDE8F081000030B585B06A
:101A140010220021684600F0FDFA154815494FF0E0
:101A240080734FF4803280E80E004FF0805301251C
:101A34000024C3624FF0C0630561047680F820403F
:101A44008362C460C56180F830504561FEF7B0FD23
:101A540008B100F05FF96946054802948DE830004A
:101A6400FEF74CFE08B100F055F905B030BD00BFDB
:101A7400380000200020014070B5064688B01422CA
:101A8400002103A800F0C6FA32681F4B9A4238D1ED
:101A9400002503F58C3301955A6C1C481C4C42F408
:101AA40080725A645A6C02F480720192019A02950F
:101AB4001A6B42F001021A631B6B03F001030293D9
:101AC400029B0123039303A903230493FFF770F8F4
:101AD400104BA56084E828004FF4806323614FF421
:101AE4000063636120464FF40053E560A361E56140
:101AF40025626562FEF724FF08B100F00BF9B463B8
:101B0400A66308B070BD00BF002001400000024081
:101B1400800000201064024007B50B4B00220192A4
:101B2400196B41F4800119631B6B03F48003019367
:101B340011463820019BFEF795FE3820FEF7C6FEBD
:101B440003B05DF804FB00BF0038024030B5142236
:101B54008BB00DEB0200002100F05CFA0024224B54
:101B640001941A6B214D42F004021A631A6B02F0BD
:101B740004020192019A02941A6B42F080021A63E1
:101B84001A6B02F080020292029A03941A6B42F0DA
:101B940001021A631A6B02F001020392039A04947D
:101BA4001A6B42F002021A631B6B03F00203224613
:101BB400049328462021049BFFF7D4F84FF40053E4
:101BC400059305A90A4B0B4806930794FEF7F0FF0B
:101BD4002023059305A90123284606930794089416
:101BE400FEF7E6FF0BB030BD0038024000000240B3
:101BF400000021100008024030B595B034220021C5
:101C040007A800F007FA0021142202A800F002FA43
:101C140000251C4B00951A6C42F080521A641B6C10
:101C2400194A03F080530093009B0195136823F431
:101C3400404343F48043136013680E9503F4404318
:101C44000193019B01230A9310230B930F934FF4E9
:101C5400A8730224109307A80423119307940D94E6
:101C640012941394FFF786F90F23029321464FF43D
:101C7400805302A80394049505930695FFF778F81A
:101C840015B030BD003802400070004008B5FEF7C2
:101C940063FC124D124CFFF7AFFFFFF757FFFFF73E
:101CA4003BFFFFF7B3FE00F093F800F0C7F800F035
:101CB4000FF92E462368296801330F291A4603F1C8
:101CC4000103FAD1074922600A2301220968064860
:101CD400FFF73EFE00233360ECE700BF3000002036
:101CE400280000202C000020600100200268064B20
:101CF4009A4208D1054A136801331360044B1B68E8
:101D04006FF001021A617047004401403000002066
:101D1400E00000207047000007B50E4B0021009141
:101D24005A6C42F480425A645A6C02F48042009223
:101D3400009A01911A6C42F080521A641B6C03F0F1
:101D4400805301930720019BFEF77AFD03B05DF8F1
:101D540004FB00BF003802407047FEE7FEE7FEE7E1
:101D6400FEE7704770477047FEF710BC0148FFF765
:101D74009FBA00BFE00000200148FEF75FBE00BF2D
:101D8400800000200F49D1F8883043F47003C1F873
:101D940088300D4B1A68002042F001021A609860E6
:101DA4001A6822F0847222F480321A60074A5A6058
:101DB4001A6822F480221A60D8604FF000638B60A6
:101DC400704700BF00ED00E00038024010300024EE
:101DD4007FB51022002102A800F01CF9164840F635
:101DE400B7324FF08041002380E8060040F28F12A2
:101DF400009301938360C26003618361FFF760FB1A
:101E040008B1FFF787FF4FF4805302A90A480293F1
:101E1400FFF77AFB08B1FFF77DFF20220023694614
:101E240005488DE80C00FFF703FC08B1FFF772FFCB
:101E340007B05DF804FB00BF200100200A480B49ED
:101E440008B545F2072380E80A0040F69F72002394
:101E54008360C26003618361FFF732FB18B1BDE8A0
:101E64000840FFF757BF08BDE000002000440140D0
:101E74000368B3F1804F07B50ED100230093124BD2
:101E84001A6C42F001021A641B6C03F00103009304
:101E9400009B03B05DF804FB0C4A9342F9D1002285
:101EA400094B0192596C41F4003159645B6C03F4A1
:101EB4000033019311461920019BFEF7D3FC19202E
:101EC400FEF704FDE5E700BF00380240004401408E
:101ED40008B50B480B4B4FF4E13E80E808400C2258
:101EE40000238360C360036142618361C361FFF7C0
:101EF40001FD18B1BDE80840FFF70CBF08BD00BFE5
:101F0400600100200044004010B5044688B014224B
:101F1400002103A800F07EF82268154B9A4224D1D0
:101F240003F5FA33002101911A6C124842F400328D
:101F34001A641A6C02F400320192019A02911A6B2B
:101F440042F001021A631B6B03F001030293029B2C
:101F54000C23039302230493012305930323069381
:101F640003A907230793FEF723FE08B010BD00BFA3
:101F74000044004000000240DFF834D0002103E0B8
:101F84000C4B5B58435004310B480C4B42189A429B
:101F9400F6D30B4A02E0002342F8043B094B9A4271
:101FA400F9D3FFF7EFFE00F011F8FFF76FFE70476B
:101FB4000000022070200008000000200C00002017
:101FC4000C000020A0010020FEE7000070B50D4EBB
:101FD4000D4CA41BA4100025A54209D10B4E0C4C9A
:101FE40000F020F8A41BA4100025A54205D170BD63
:101FF40056F8253098470135EEE756F825309847CE
:102004000135F2E76820000868200008682000080D
:102014006C20000802440346934200D1704703F841
:10202400011BF9E7F8B500BFF8BC08BC9E46704731
:0C203400F8B500BFF8BC08BC9E46704721
:102040000006101600061016000000000000000038
:10205000010203040607080900000000010203044E
:08206000D4E1FF7F0100000044
:04206800E901000882
:04206C00C5010008A2
:0C20700001000000100000000024F4003B
:0400000508001F7D53
:00000001FF
